:020000040800F2
:10000000A025002021020008612D00080F2400080F
:100010006D2C0008E1060008F5380008000000001B
:10002000000000000000000000000000890100083E
:10003000E306000800000000CD0100085D33000861
:100040003B0200083B0200083B0200083B0200089C
:100050003B0200083B0200083B0200083B0200088C
:100060003B0200083B020008BD0700083B020008F5
:100070003B0200083B0200083B0200083B0200086C
:100080003B0200083B0200083B0200083B0200085C
:100090003B0200083B0200083B0200083B0200084C
:1000A0003B020008D53300083B0200083B02000871
:1000B0003B0200083B0200083B0200083B0200082C
:1000C0003B0200083B0200083B0200083B0200081C
:1000D0003B020008353800083B0200083B020008DC
:1000E000B50700083B0200083B02000800F002F8D8
:1000F00000F03AF80AA090E8000C82448344AAF188
:100100000107DA4501D100F02FF8AFF2090EBAE885
:100110000F0013F0010F18BFFB1A43F0010318473B
:10012000A06A0000C06A0000103A24BF78C878C1F5
:10013000FAD8520724BF30C830C144BF04680C60ED
:10014000704700000023002400250026103A28BF35
:1001500078C1FBD8520728BF30C148BF0B60704739
:100160001FB51FBD10B510BD00F04AF91146FFF7CD
:10017000F7FF03F0FBFB00F068F903B4FFF7F2FFB1
:1001800003BC00F06BF90000224B19680868B0E866
:10019000F00F80F30988BFF36F8F4FF0000080F3FA
:1001A00011884EF00D0E70470000000006480068F0
:1001B000006880F3088862B661B6BFF34F8FBFF363
:1001C0006F8F00DF00BF00BF08ED00E0EFF3098094
:1001D000BFF36F8F0F4B1A6820E9F00F106008B55E
:1001E0004FF0500080F31188BFF34F8FBFF36F8F34
:1001F00004F022FB4FF0000080F31188BDE80840B6
:1002000019680868B0E8F00F80F30988BFF36F8FB2
:10021000704700BF14000020EFF305807047000016
:100220000948804709480047FEE7FEE7FEE7FEE78A
:10023000FEE7FEE7FEE7FEE7FEE7FEE704480549C6
:10024000054A064B70470000D1330008ED00000856
:10025000A01F0020A0250020A0210020A021002018
:10026000032A40F2308010F0030C00F0158011F8E2
:10027000013BBCF1020F624498BF11F801CB00F8BA
:10028000013B38BF11F8013BA2F1040298BF00F80E
:1002900001CB38BF00F8013B11F0030300F0578099
:1002A000083AC0F0088051F8043B083A51F804CBF2
:1002B000A0E80810F5E7121D5CBF51F8043B40F8B8
:1002C000043BAFF30080D20724BF11F8013B11F8C3
:1002D00001CB48BF11F8012B24BF00F8013B00F807
:1002E00001CB48BF00F8012B704702F0FF0343EA3F
:1002F000032242EA024200F05EB84FF0000200B56D
:10030000134694469646203922BFA0E80C50A0E838
:100310000C50B1F12001BFF4F7AF090728BFA0E8E6
:100320000C5048BF0CC05DF804EB890028BF40F8B2
:10033000042B08BF704748BF20F8022B11F0804FF4
:1003400018BF00F8012B704770477047704710B511
:10035000203AC0F00B80B1E81850203AA0E81850BD
:10036000B1E81850A0E81850BFF4F5AF5FEA027C7E
:1003700024BFB1E81850A0E8185044BF18C918C0ED
:10038000BDE810405FEA827C24BF51F8043B40F88E
:10039000043B08BF7047D20728BF31F8023B48BF73
:1003A00011F8012B28BF20F8023B48BF00F8012BB1
:1003B00070474FF000020429C0F0128010F0030CC7
:1003C0003FF49DAFCCF1040CBCF1020F18BF00F854
:1003D000012BA8BF20F8022BA1EB0C01FFF78FBF68
:1003E0005FEAC17C24BF00F8012B00F8012B48BF55
:1003F00000F8012B7047000000487047401F0020A4
:100400007546FFF7F9FFAE4605006946534620F0F2
:100410000700854618B020B5FFF710FFBDE8204063
:100420004FF000064FF000074FF000084FF0000BB0
:1004300021F00701AC46ACE8C009ACE8C009ACE863
:10044000C009ACE8C0098D46704710B50446AFF34B
:1004500000802046BDE81040FFF78FBE01491820FC
:10046000ABBEFEE7260002007047000038B5002052
:10047000144D4FF4804400902146284600F07AFC49
:10048000012818D02146284600F074FC002811D11C
:1004900003F01AFA0C486946C06804F010FC68B111
:1004A0000098012806D1094900070860BFF34F8F63
:1004B000BFF36F8F38BD03F0FBF938BD00F081F951
:1004C00038BD0000000C0140CC00002004ED00E02D
:1004D00000F04CF8214C4FF0FF3A00BF03F0C6F992
:1004E0005146E06804F0D6FC012802D000F069F91A
:1004F000F4E703F0A5F9A08005F0E1F8DFF86080EB
:10050000894605464246174B05F0ECF806460F466D
:10051000284649464246144B05F0E4F832463B462D
:1005200004F0F8FF05F09EF880B260801E280CD21F
:1005300000F092FA012803D000F08EFA0728CDD1FE
:1005400000F08AFA2070082004E000F085FA0828FC
:10055000C4D1207802F0E4FEC0E70000CC00002007
:100560009A9999999999E93F9999C93F10B503F0DA
:100570006FF903220021012004F0FAF90649C8604E
:1005800028B14FF0FF3104F085FC012803D0BDE80D
:10059000104000F016B910BDCC0000201CB5064973
:1005A0000320CDE9000100234FF4806203A1054838
:1005B00004F066FD1CBD0000D400002061766F6968
:1005C00064000000D10400082DE9F041314C324FA5
:1005D000324D6078324E012839462ED0002002F08C
:1005E0005DFE39460C2002F059FE642003F0E0FF66
:1005F0002946082002F052FE2946042002F04EFE51
:10060000642003F0D5FF3146002002F047FE31465A
:100610000C2002F043FE642003F0CAFF314608209C
:1006200002F03CFE3146042002F038FE642003F064
:10063000BFFF01206070BDE8F081082002F02EFEAF
:100640003946042002F02AFE642003F0B1FF294657
:10065000002002F023FE29460C2002F01FFE642039
:1006600003F0A6FF3146082002F018FE31460420B0
:1006700002F014FE642003F09BFF3146002002F0DC
:100680000DFE31460C2002F009FE642003F090FFBD
:100690000020CFE7AC0000200000074300003442F8
:1006A0000000B4424FF4FA7402F020F9204603F03F
:1006B0007FFFF9E71CB505490020CDE9000103469D
:1006C000802203A1054804F0DBFC1CBDE0000020F3
:1006D000626C696E6B2D626C696E6B00A50600081A
:1006E000FEE7704700F03AF8154C4FF0FF354FF435
:1006F000FA762946A06804F0CDFB20781038062849
:1007000009D2DFE800F003051416181A0D4800E0BE
:100710000D4802F069FB304603F04AFF0021A06853
:1007200004F0B8FB0128E4D000F04BF8E1E70748FB
:10073000EFE70748EDE70748EBE70748E9E7000080
:1007400094000020726000085262000832640008C1
:1007500012660008F2670008D269000810B502F0BE
:100760004FFB03220021012004F002F906498860B2
:1007700028B14FF0FF3104F08DFB012803D0BDE814
:10078000104000F01EB810BD940000201CB50549B3
:100790000220CDE90001C202002303A1044804F0B5
:1007A0006FFC1CBD98000020646973706C61790057
:1007B000E50600084FF4804000F0E0B9102000F09A
:1007C000DDB972B6704700002DE9F041314C324F6F
:1007D000324D2078324E012839462ED0002002F0CA
:1007E0005DFD39460C2002F059FD642003F0E0FE67
:1007F0002946082002F052FD2946042002F04EFD51
:10080000642003F0D5FE3146002002F047FD31465A
:100810000C2002F043FD642003F0CAFE314608209C
:1008200002F03CFD3146042002F038FD642003F064
:10083000BFFE01202070BDE8F081082002F02EFDEF
:100840003946042002F02AFD642003F0B1FE294657
:10085000002002F023FD29460C2002F01FFD642039
:1008600003F0A6FE3146082002F018FD31460420B0
:1008700002F014FD642003F09BFE3146002002F0DC
:100880000DFD31460C2002F009FD642003F090FEBE
:100890000020CFE7AC0000200000344200000743F6
:1008A0000000B4420E48008810280DD008DC012852
:1008B00012D0022812D004280AD0082802D109E058
:1008C000202803D000207047012070470220704785
:1008D00003207047042070470620704705207047AA
:1008E000A00000200A480078203806280ED2DFE851
:1008F00000F00D030507090B112070471220704707
:10090000132070471420704715207047102070473F
:10091000C00000200D4800781038082813D2DFE806
:1009200000F0120406080A0C0E1001207047022085
:100930007047032070470420704705207047062049
:10094000704707207047002070470000C00000205B
:100950001FB50020039042F21072022103A88DE817
:10096000070001234322E721034800F075FBBDF88F
:100970000C0004B010BD0000F800002008B5FFF71F
:10098000E7FF0B4A6946108000200090906804F051
:1009900096F950B10098012806D106490007086071
:1009A000BFF34F8FBFF36F8F08BDFFF70AFF08BD7E
:1009B000A000002004ED00E000F01CF80C4C4FF00B
:1009C000FF354FF47A762946A06804F063FA0128CF
:1009D00009D0FFF7F6FE304603F0EAFD0021A068DB
:1009E00004F058FAEFE7FFF75DFF02F099FCF2E739
:1009F000A000002010B502F0F3FA0322002101202C
:100A000003F0B6FF0649886028B14FF0FF3104F0CB
:100A100041FA012803D0BDE81040FFF7D2BE10BD57
:100A2000A00000201CB506490320CDE900010023E9
:100A30004FF4806203A1074804F022FB1CBD0000B4
:100A4000A400002067657374757265206465746521
:100A500063740000B90900080148807870470000FD
:100A6000AC00002010B590F821100022022905D01A
:100A70000421816380F82020012010BD01680B68EB
:100A800023F00E030B6001680B6823F001030B6079
:100A900090F84030C46B012101FA03F3636080F8E1
:100AA000211080F82020104610BD000010B590F8ED
:100AB00021100024022903D00421816301243DE098
:100AC00001680A6822F00E020A6001680A6822F0D2
:100AD00001020A601A4A0168914201D1012121E014
:100AE000174A1432914201D110211BE0144A2832D6
:100AF000914201D1891515E0114A3C32914201D150
:100B000089140FE00E4A5032914202D14FF48031E5
:100B100008E00B4A6432914202D14FF4801101E0A7
:100B20004FF08071064A083A5160012180F8211087
:100B3000002180F82010416B01B18847204610BD8C
:100B40000800024070B5044600F026F90546601C16
:100B500002D004480078044400F01EF9401BA04273
:100B6000FAD370BD04000020102804D0B0F5804FE7
:100B700003D1FFF77BBCFFF701BF7047044910B5F5
:100B80000A68024202D00860FFF7EEFF10BD0000C5
:100B9000140401402DE9F84FDFF8B8910024A9F1C1
:100BA000040B23460F2709F1040AABF1040EC9E038
:100BB0000125A5402A40AA427DD1674ED1F804C044
:100BC000ACEB0608B44532D014DCBCF1030F3AD0CC
:100BD00009DCBCF1000F2AD0BCF1010F1CD0BCF124
:100BE000020F31D11DE0BCF1110F17D0BCF1120F73
:100BF0002AD119E0B8F5881F19D006DCB8F5803F76
:100C000015D0B8F5801F1FD111E0B8F5001F0ED028
:100C1000B8F5041F18D10AE0CB6815E0CB681B1D9E
:100C200012E0CB6808330FE0CB680C330CE08B6824
:100C30002BB1012B4FF0080303D0456104E00423DE
:100C400002E0056100E00023FF2A01D8064601E02A
:100C500000F104064FEA840501D9A5F12005D6F874
:100C6000008007FA05FC28EA0C0803FA05F548EAB3
:100C70000508C6F800804D68ED0062D5374DAE69B5
:100C800046F00106AE61AD6924F0030605F00105EA
:100C90000095334D06EB050CDCF80850A607360F1F
:100CA00007FA06F825EA0805DFF8B880404503D1C1
:100CB0004FF0000817E044E0DFF8AC80404502D177
:100CC0004FF001080FE0DFF8A480404502D14FF05B
:100CD000020808E0DFF89880404502D14FF0030891
:100CE00001E04FF0040808FA06F848EA0508CCF8D5
:100CF00008804D68D9F80060ED024D4601D51643D5
:100D000000E096432E604D68DAF80060AD0255466B
:100D100001D5164300E096432E604D68DBF8006075
:100D2000AD035D4601D5164300E096432E604D6845
:100D3000DEF80060ED03754601D5164300E09643EA
:100D40002E60641C0D682A46E5407FF431AFBDE893
:100D5000F88F00000804014000001110001002404C
:100D60000000014000080140000C0140001001405B
:100D7000001401408068084000D001207047C2681C
:100D800021EA02030A4043EA0241016170470AB1C5
:100D9000016170470904FBE7014880687047000063
:100DA0000400002070B5040025D094F83D00002513
:100DB00020B984F83C50204600F014FB242084F82D
:100DC0003D002068016821F0010101602068016890
:100DD00041F4004101602068016821F40041016094
:100DE00000F0B2FC4D4A6168914201D84C4900E0E4
:100DF0004C49884201D2012070BD4B492368B0FBA9
:100E0000F1F15E6826F03F060E435E606368934230
:100E100006D94FF4967359434FF47A73B1FBF3F14B
:100E20002368491C1E6A26F03F0631431962616837
:100E3000914210D84900401EB0FBF1F2521CC2F39F
:100E40000B02042A01D2042022E0B0FBF1F0401C86
:100E5000C0F30B001CE0A268F2B301EBC10303EB8B
:100E60000116431EB3FBF6F35B1C43F480431B05E2
:100E700049D092B301EBC10202EB0111401EB0FB5D
:100E8000F1F0401CC0F30B0040F4804040F40040FF
:100E90002168CA694CF6FF739A431043C861D4E9CC
:100EA000071001432068026822F0C002114301606C
:100EB000D4E9030101432068826848F2FF339A4372
:100EC00011438160D4E9050108432168CA6822F012
:100ED000FF021043C86001E00EE016E020680168E0
:100EE00041F0010101602564202084F83D00256364
:100EF00084F83E50002070BD01EB4106431EB3FB59
:100F0000F6F35B1CB3E70120C2E701EB4101401E91
:100F1000B0FBF1F0401CC0F30B00B7E7A086010066
:100F200080841E0000093D0040420F002DE9F84F6B
:100F30001F4690468A460446DDF82890FFF72CFFAE
:100F4000054694F83D0020287FD11923012240490D
:100F50002046009501F0C0FB002876D194F83C00B3
:100F6000012872D0012084F83C0020680168C9077C
:100F700003D1016841F0010101602068016821F49A
:100F800000610160212084F83D00102084F83E00BB
:100F900000262664C4F824806785608D20852D484E
:100FA000E0622B464A465146204601F049FA90B984
:100FB000206841698069009036E02A46494620460B
:100FC00001F068FC50B1206C042804D1206801684D
:100FD00041F4007101600120BDE8F88F606A21686A
:100FE00000780861606A401C6062618D491E6185FD
:100FF000218D491E89B2218522685369DB435B0735
:101000000BD451B100781061606A401C6062608D41
:10101000401E6085208D401E20852A464946204678
:1010200001F02EFB0028CED1208D0028C5D154F828
:101030003D0B016841F400710160202004F81E0995
:10104000E67766770020C7E7FFE70220C4E70000E5
:10105000020010000000FFFF2DE9FF4F83B00025C4
:10106000DDE910799A4693460446DDF848800095FC
:10107000FFF792FE064694F83D0020287CD1192304
:10108000012288492046009601F026FB0028F5D170
:1010900094F83C0001286FD0012084F83C002068BF
:1010A0000168C90703D1016841F0010101602068AE
:1010B000016821F400610160222084F83D00402095
:1010C00084F83E0025646762A4F82A90608D20852C
:1010D0007548E062CDE9008653465A462046049999
:1010E00001F0FCF900287CD1208DDFF8C091202789
:1010F00068B1012814D00228206801681ED041F48C
:10110000806101602068416980690090BCE02068CE
:10111000416981690091016841F400710160B3E0A7
:101120002068016821F48061016072B6206841691D
:1011300081690091016841F400710AE041F40061A5
:10114000016072B62068416981690091016821F4EB
:101150008061016062B697E0032865D801280CD051
:10116000022843464FF000024946204600960BD025
:1011700001F0B2FAA8BB0CE091E0324641462046AD
:1011800001F050FB68BB72E001F0A6FA48BB72B6F2
:1011900033E02068016821F48061016072B6206844
:1011A0000069616A0870606A401C6062208D401EA0
:1011B0002085608D401E60853D4846F2A81100687C
:1011C000B0FBF1F0C0EBC00000EB80000090401ECF
:1011D000009007D020684069C04340070DD50098B3
:1011E000F5E727E044F8305F6773A573206940F0A6
:1011F0002000206162B625731CE02068016841F47C
:101200000071016020680069616A0870606A401CB2
:101210006062218D491E2185618D491E618562B6FE
:1012200021680969017026E032464146204601F0F6
:10123000F9FA18B1012007B0BDE8F08F2068006905
:10124000616A0870606A401C6062208D401E81B235
:101250002185608D401E608520684269D243520717
:1012600012D4032903D1016821F480610160206850
:101270000069616A0870606A401C6062208D401ECF
:101280002085608D401E6085208D00287FF464AF2E
:1012900084F83D7084F83E5084F83C50CBE702203F
:1012A000C9E70000020010000000FFFF0400010079
:1012B000100000202DE9FF4F83B09A46DDE9119719
:1012C00093460446DDF84080FFF766FD054694F836
:1012D0003D0020287FD11923012240492046009556
:1012E00001F0FAF9002876D194F83C00012872D078
:1012F000012084F83C0020680168C90703D1016817
:1013000041F0010101602068016821F40061016081
:10131000212084F83D00402084F83E000026266409
:10132000C4F82480A4F82A90608D20852C48E062BF
:10133000CDE9007553465A462046049901F04CF910
:1013400070B930E02A463946204601F0A3FA58B178
:10135000206C042804D12068016841F40071016008
:10136000012007B0BDE8F08F606A2168007808614D
:10137000606A401C6062218D491E89B22185628DA0
:10138000521E628522685369DB435B070BD469B147
:1013900000781061606A401C6062208D401E2085CC
:1013A000608D401E6085208D0028CBD12A463946AD
:1013B000204601F065F90028CAD154F83D0B0168B8
:1013C00041F400710160202004F81E09E677667779
:1013D0000020C6E7FFE70220C3E70000020010007C
:1013E0000000FFFF10B586B000210091019102912D
:1013F000039100681349884222D1134CA06940F040
:101400000800A061A069694600F0080004904FF44C
:101410004070009012200190032003900B48FFF7CA
:10142000B9FB0B48416841F0E06141F002014160C5
:10143000E06940F40010E061E06900F400100490FD
:1014400006B010BD0054004000100240000C0140E6
:1014500000000140024881680278114481607047B1
:1014600004000020074810B5016841F01001016038
:10147000032000F0A1F8012000F006F800F04AF87F
:10148000002010BD0020024030B505461C4887B042
:10149000816941F400618161806906A900F40060FE
:1014A000009001A800F030F900F05EF91549164AE5
:1014B000B0FBF1F11548491E0260416040F2E7328D
:1014C0000021C0E903218160816100F049FB040033
:1014D00012D10E4800F090FB04000DD1192000F04D
:1014E0003DF8102D07D200222946192000F044F8BB
:1014F0000748056000E0012407B0204630BD000029
:101500000010024040420F00002C01402402002045
:10151000080000200F4808B5816941F00101816190
:10152000816901F001010091C16941F08051C161FF
:10153000C069002200F0805000900F21901E00F042
:101540001BF80548416821F0E06141F000714160FD
:1015500008BD00000010024000000140002809DB27
:1015600000F01F02012191404009800000F1E020BD
:10157000C0F8001170470000F0B40E4B1B680C4619
:10158000C3F30223C3F10705042D00D90425191D57
:10159000072901D2002300E0DB1E012606FA05F12F
:1015A000491E214099409E40761E16403143F0BCB2
:1015B00002F0CCB90CED00E0064900F00702086823
:1015C0004FF6FF03184040EA0220034A1043086028
:1015D000704700000CED00E00000FA052DE9F0472F
:1015E0000F46050061D0434E306800F00700B84256
:1015F00009D2306820F0070038433060306800F0CE
:101600000700B84251D128683B4C810712D54007EA
:1016100003D5606840F4E06060602878000703D577
:10162000606840F4605060606068A96820F0F00075
:10163000084360602878C00728D06868012810D067
:101640002168022810D0890700292EDA616821F06C
:10165000030101436160FFF79FFB804641F2883937
:101660000DE021688903EFE78901EDE7FFF794FBBF
:10167000A0EB0801494502D90320BDE8F087606866
:10168000696800F00C00B0EB810FEFD1306800F01A
:101690000700B8420BD9306820F0070038433060AB
:1016A000306800F00700B84201D00120E5E7287853
:1016B000400705D56068E96820F4E0600843606091
:1016C0002878000706D56068296920F4605040EA50
:1016D000C100606000F058F86168084AC1F3031166
:1016E000515CC8400649086006480068FFF7CCFE18
:1016F0000020C2E70020024000100240F65F000810
:1017000010000020080000200F2202600C4A5368DD
:1017100003F003034360536803F0F00383605368EE
:1017200003F4E063C36052684FF4E06303EAD2025B
:1017300002610448006800F007000860704700007C
:101740000010024000200240044805490068496832
:10175000044AC1F30221515CC840704710000020C8
:101760000010024006600008044805490068496806
:10177000044AC1F3C221515CC840704710000020E8
:1017800000100240066000080E4A51680E4801F041
:101790000C03042B11D0082B0FD10C48C1F3834349
:1017A000C903C05C0AD55168084AC1F34041921E82
:1017B000515C054A5043B0FBF1F07047044948437F
:1017C000704700000010024000127A00E65F000837
:1017D00000093D002DE9F84F040070D02078C04D7D
:1017E000C00749D06868C0F38100012807D0686845
:1017F000C0F38100022809D16868C00306D52868B3
:10180000800339D560680028E7D035E06068B0F51E
:10181000803F0BD010B1B0F5A02F11D0286820F474
:1018200080302860286820F4802002E0286840F496
:1018300080302860606890B1FFF7AEFA06460AE093
:10184000286840F480202860F0E700BFFFF7A4FA82
:10185000801B642873D828688003F7D50CE0FFF755
:101860009BFA064605E000BFFFF796FA801B642846
:10187000F0D828688003F7D420789A4E80074FF07C
:1018800001094FF0000839D5686810F00C0F07D037
:101890006868C0F38100022809D16868C00306D4D3
:1018A0002868800714D52069012808D110E0206934
:1018B000B0B1C6F80090FFF76FFA074605E00AE1FD
:1018C000FFF76AFAC01B0228C4D828688007F7D53A
:1018D0002868616920F0F80040EAC10028600DE046
:1018E000C6F80080FFF758FA074604E0FFF754FAFD
:1018F000C01B022823D828688007F7D42078000767
:101900002CD57948A169D9B1C0F80090FFF744FA05
:10191000074604E0FFF740FAC01B02280FD8686AA8
:101920008007F7D571484FF4FA510068B0FBF1F029
:10193000009000BF0098411E0091FAD20EE080E0B6
:10194000C0F80080FFF728FA074604E0FFF724FA02
:10195000C01B022875D8686A8007F7D42078400732
:1019600060D5E8690027C00008D4E86940F08050DD
:10197000E861E869012700F0805000905C48016848
:10198000C90513D40168834641F480710160FFF7F3
:1019900003FA824606E000BFFFF7FEF9A0EB0A005B
:1019A00064284ED8DBF80000C005F5D5E0680128B2
:1019B0000AD008B1052813D0286A20F00100286257
:1019C000286A20F0040002E0286A40F00100286242
:1019D000E06841F2883B98B1FFF7DEF982460BE000
:1019E000286A40F004002862EEE700BFFFF7D4F950
:1019F000A0EB0A0159455AD8286A8007F6D50CE0B1
:101A0000FFF7CAF9824605E0FFF7C6F9A0EB0A0125
:101A100059454CD8286A8007F6D41FB1E86920F0F0
:101A20008050E861E06988B36968C1F381010229E7
:101A300044D00228C6F8608004D0FFF7ADF9044610
:101A400038E034E0FFF7A8F9074604E0FFF7A4F90F
:101A5000C01B02282BD828688001F7D4206AB0F573
:101A6000803F05D16868A16820F4003008436860B1
:101A7000D4E908010843696821F4741108436860D7
:101A8000C6F86090FFF788F9044606E025E000BF3D
:101A9000FFF782F9001B022809D828688001F7D5D2
:101AA0001BE000BFFFF778F9001B022802D90320D2
:101AB000BDE8F88F28688001F4D40EE00128F7D043
:101AC0006868226A00F48031914204D1616A00F4AE
:101AD0007010884201D00120EAE70020E8E700000A
:101AE00000100240000042428004424210000020E8
:101AF000007000407047704770B590F83C20012A94
:101B000026D0012480F83C40022280F83D20036862
:101B10005A689D6822F070060A6832435A600D4B7D
:101B200002689A4208D0B2F1804F05D00A4B9A421F
:101B300002D00A4B9A4204D1496825F08003194328
:101B4000916080F83D40002180F83C10084670BD4F
:101B5000022070BD002C014000040040000800403D
:101B600010B5040003D094F83D0010B107E0012047
:101B700010BD002084F83C00204600F01FF8022031
:101B800084F83D00211D206801F02AFC012084F822
:101B9000460084F83E0084F83F0084F8400084F852
:101BA000410084F8420084F8430084F8440084F83B
:101BB000450084F83D00002010BD000008B5016814
:101BC0000B48B1F1804F0BD00A4A914207D1C1694D
:101BD00041F00201C161C06900F00200009008BD3F
:101BE000C16941F00101C161C06900F00100F5E780
:101BF000001002400004004090F83D10012901D07F
:101C000001207047022180F83D100168CA6842F047
:101C10000102CA6000680B49884208D0B0F1804FC9
:101C200005D00949884202D00849884204D1816818
:101C300001F00701062903D0016841F001010160AC
:101C400000207047002C01400004004000080040C4
:101C500070B5044690F83C000025012817D00126F5
:101C600084F83C60022084F83D002068826822F0FD
:101C7000770222F47F4282600868502838D00DDC59
:101C800020284FD005DC90B3102811D14AE0022063
:101C900070BD302846D040280AD13BE060282FD0C4
:101CA00070280DD0B0F5805F03D0B0F5005F12D082
:101CB000012584F83D60002084F83C00284670BD72
:101CC000CB68D1E90121206801F0D3FB206881684D
:101CD00041F0770109E0CB68D1E90121206801F0EA
:101CE000C8FB2068816841F480418160E1E719E028
:101CF000CA684968206801F071FC5021206806E03C
:101D0000CA684968206801F07AFC6021206801F007
:101D1000BAFBCEE7CA684968206801F05FFC402141
:101D20002068F4E7226801461046F0E770472DE985
:101D3000F04104460068C66805694FF00007A9072E
:101D400013D5B10711D5F91E016101202077206854
:101D500080698007204602D0FFF7E8FF04E000F02A
:101D6000A3F8204600F035F92777680716D57007E5
:101D700014D521686FF004000861022020772068E4
:101D8000806910F4407F204602D0FFF7CFFF04E0C7
:101D900000F08AF8204600F01CF92777280715D5AF
:101DA000300713D521686FF0080008610420207700
:101DB0002068C0698007204602D0FFF7B7FF04E023
:101DC00000F072F8204600F004F92777E80616D5EF
:101DD000F00614D521686FF0100008610820207704
:101DE0002068C06910F4407F204602D0FFF79EFFB4
:101DF00004E000F059F8204600F0EBF82777E807F8
:101E000008D0F00706D021686FF001000861204675
:101E100000F02EF9280608D5300606D521686FF0A7
:101E2000800008612046FFF765FE680608D5700649
:101E300006D521686FF040000861204600F022F9C5
:101E4000A8060AD5B00608D521686FF02000086101
:101E50002046BDE8F041FFF74EBEBDE8F08100002E
:101E600000B585B0002100910191029103910068B5
:101E7000B0F1804F11D10A48816941F004018161BC
:101E80008069694600F0040004900F200090022051
:101E9000019003900348FEF77DFE05B000BD0000F1
:101EA0000010024000080140704770B5044690F8E9
:101EB0003C0000260D4601280FD0012084F83C008C
:101EC0006AB1042A1DD0082A2FD00C2A3FD001263F
:101ED000002084F83C00304670BD022070BD2068B0
:101EE00001F0DAFA2068816941F008018161206817
:101EF000816921F004018161206881692A691143A7
:101F000011E0206801F0F0FA2068816941F4006175
:101F100081612068816921F4806181612068816923
:101F20002A6941EA02218161D2E7206801F008FBB9
:101F30002068C16941F00801C1612068C16921F0D0
:101F40000401C1612068C1692A69114311E0206858
:101F500001F022FB2068C16941F40061C161206881
:101F6000C16921F48061C1612068C1692A6941EABF
:101F70000221C161ACE710B5040003D094F83D0024
:101F800010B107E0012010BD002084F83C0020467D
:101F900000F01EF8022084F83D00211D206801F0A9
:101FA0001FFA012084F8460084F83E0084F83F00C0
:101FB00084F8400084F8410084F8420084F843002B
:101FC00084F8440084F8450084F83D00002010BDEA
:101FD0007047704710B50446022249B104290ED05B
:101FE000082913D094F84100012816D0012010BD13
:101FF00094F83E000128F9D184F83E200FE094F8CF
:102000003F000128F2D184F83F2008E094F8400016
:102010000128EBD184F8402001E084F8412001221E
:10202000206801F019FA0F492068884203D1426CF8
:1020300042F4004242642068884208D0B0F1804FE8
:1020400005D00949884202D00849884204D18168F4
:1020500001F00701062903D0016841F00101016088
:10206000002010BD002C014000040040000800408A
:1020700000680349884201D1FFF7ECB970470000BE
:10208000002C01407047704770470000F8B50168A8
:1020900004460868CA684B6910F00F0F4FF000053E
:1020A00059D003F0010602F49077374365D0C10799
:1020B00005D0D10503D5616C41F001016164410790
:1020C00005D5D90703D0616C41F002016164810735
:1020D00005D5D90703D0616C41F0040161640107A3
:1020E00007D502F02001314303D0616C41F00801B3
:1020F0006164616C00293AD0800604D5900602D54F
:10210000204601F0BDFA20684069616CC0F3801080
:10211000090700D460B3204601F08BFA20684069BB
:10212000400621D52068143050E8001F21F04001FE
:1021300040E80012002AF5D1E06BA8B16D49416377
:10214000E06BFEF7B3FC002811D0E06B416B01B0EF
:10215000BDE8F040084783060FD593060DD520460D
:10216000BDE8F84001F08CBA2046FFF78DFFF8BDBE
:102170002046FFF789FF6564F8BD266B2023012EFA
:102180007CD1C6067AD5D60678D50868486800900E
:1021900048694FF00206400640D5E16B0868406888
:1021A0000004000CE8D0A28D8242E5D9E085886960
:1021B00020282DD020680C3050E8001F21F48071B9
:1021C00040E80012002AF5D12068143050E8001FC2
:1021D00021F0010140E80012002AF5D120681430F6
:1021E00050E8001F21F0400140E80012002AF5D11C
:1021F00084F84230256320680C3050E8001F21F03D
:10220000100140E80012002AF5D1E06BFEF72AFC2D
:102210006663A08DE18D401A81B22AE0A08DE18D28
:10222000401A81B2E08D0028A6D00029A4D02268EF
:102230000C3252E8000F20F4907042E80007002FA3
:10224000F5D12068143050E8002F22F0010240E858
:102250000027002FF5D184F84230256320680C3028
:1022600050E8002F22F0100240E80023002BF5D1A7
:1022700066632046FFF707FFF8BDFFE705062BD58D
:10228000150629D594F841002128F5D1A068B0F5AC
:10229000805F01D12069B0B1206A411C21622168B0
:1022A00000784860E08C401E0004000CE084E3D11C
:1022B0002068C16821F08001C1602068C16841F0D8
:1022C0004001C160D8E7206A0088C0F30800486078
:1022D000206A801C2062E5E74006CDD55006CBD5AC
:1022E000CA68204622F04002CA6084F8413000F0FB
:1022F0008DF8C1E72336000870B5040004D094F8C7
:102300004100002510B106E0012070BD84F8405066
:10231000204600F023F8242084F841002068C1689A
:1023200021F40051C160204601F00CFA20680169D7
:1023300021F4904101612068416921F02A01416145
:102340002068C16841F40051C1606564202084F8B0
:10235000410084F842006563002070BD30B585B04F
:102360000024009401940294039400681849884260
:102370002CD11848816941F480418161816901F45F
:1023800080410491816941F0040181618069124DAD
:1023900000F0040004904FF40070009002200190BF
:1023A0000320039069462846FEF7F4FB2815CDE983
:1023B0000004694628460294FEF7ECFB0022052142
:1023C0002520FFF7D9F82520FFF7C8F805B030BD64
:1023D00000380140001002400008014090F84230EF
:1023E000202B01D00220704721B11AB100230363D2
:1023F00001F004BA0120704700680349884201D106
:1024000000F0BEBE70470000003801407047FEE794
:1024100001684A69D24352050FD46FF480624A6161
:10242000002140F8301F202242738173026942F07C
:102430000402026101730120704700207047000010
:10244000F8B50446C06A1E460D461746082807D050
:10245000012805D010F5803F02D0206B122804D14E
:102460002068016841F480710160134600224FF03A
:1024700001112046009600F02FF940B12068006855
:10248000C00502D54FF4007020640320F8BD206918
:10249000B0F5804F0ED00620216800EAD51040F03C
:1024A000F000086133463A460B49204600F05CF9DB
:1024B00078B902E005F0FE0000E0E8B221680861AA
:1024C000054933463A46891F204600F04DF9002859
:1024D000DCD00120F8BD0000080001002DE9F84F14
:1024E0000446006889460B9D01689846174641F4EA
:1024F000806101602068016841F48071016000958D
:102500004FF0011B0022594620460A9B00F0E4F8D8
:102510004FF4007A40B120680068C00501D5C4F8C6
:1025200040A00320BDE8F88F216809F0FE00086193
:102530002B46284920460A9A00F016F9F0BB20687D
:102540004169806900902A4620460A9900F0A2F964
:1025500040B1206C04283AD12068016841F4007130
:10256000016034E0FEB2B8F1010F09D02168380AE9
:1025700008612A4620460A9900F08CF90028E8D123
:10258000206806612A4620460A9900F083F900284F
:10259000DFD12068016841F480710160009500225C
:1025A000594620460A9B00F097F80028B3D12168CD
:1025B00009F0FF0040F00100086100E007E02B4651
:1025C000044920460A9A00F0CFF80028AAD001203A
:1025D000A8E70000020001002DE9F8430446006866
:1025E0000D46DDE9089701689846164641F480716A
:1025F00001604B4600224FF001112046009700F089
:102600006BF848B120680068C00502D54FF400702F
:1026100020640320BDE8F883216805F0FE0008610E
:102620003B464A461549204600F09EF888B9206886
:102630004169806900903A464946204600F02AF9EF
:1026400048B1206C042804D12068016841F400716D
:1026500001600120DEE7F5B2B8F1010F09D0216871
:10266000300A08613A464946204600F013F900282E
:10267000E7D1206805610020CCE7000002000100DE
:1026800070B516460D4604461EE02046FFF7C0FE14
:1026900008B1012070BD681C16D0FEF77DFB801BC1
:1026A000A84200D885B920684069C04340070BD5CF
:1026B000002044F8300F20216173A073216941F09C
:1026C000200121612073E4E720684069C04340078E
:1026D000DBD4002070BD00002DE9F0479846174676
:1026E0000D460446C1F30746DDF820902AE000BFFE
:1026F000B8F1FF3F26D0FEF74FFBA0EB09014145A3
:1027000002D8B8F1000F1DD12068012E16D08069C3
:1027100025EA00000004000C12D00020B84211D1BC
:10272000002044F8300F20216173A073216941F02B
:102730002001216120730120BDE8F0874069E7E7AF
:102740000120EBE72068012E0AD0806925EA00000D
:102750000004000C06D00020B842C9D00020EBE7EE
:102760004069F3E70120F7E72DE9F0479846164660
:102770000D4604464FF000094FF0200AC1F3074709
:1027800023E020684069C043400515D420680168F3
:1027900041F40071016021686FF480604861C4F801
:1027A000309084F83DA084F83E90216C41F0040103
:1027B000216484F83C9021E0701C06D0FEF7ECFA0E
:1027C000A0EB0800B04203D816B1012F1FD021E0C2
:1027D0002068012F15D0806925EA00000004000C54
:1027E00018D000BF44F8309F84F80DA084F80E90F4
:1027F000216941F02001216184F80C900120BDE89D
:10280000F087406925EA00000004000CEAD1206846
:10281000406901E02068806925EA00000004000C9E
:10282000AFD1ECE72DE9F041002590460E46044675
:10283000202728E04069C043C0060CD454F8301B60
:102840006FF01000486144F810596777A577206A47
:102850002062257714E0FEF79FFAA0EB0800B04253
:1028600000D886B920684069C04340060BD544F8BB
:10287000305F6773A573206940F0200020612573E5
:102880000120BDE8F08120684169C9434906D1D4DF
:102890000020F6E770B516460D4604461EE02046B9
:1028A000FFF7B6FD08B1012070BD681C16D0FEF719
:1028B00073FA801BA84200D885B920684069C043DC
:1028C00000060BD5002044F8300F20216173A0735F
:1028D000216941F0200121612073E4E7206840690B
:1028E000C0430006DBD4002070BD00000121014878
:1028F000FEF745BA000C014010B51849082000F059
:10290000CDFC174C0420214600F0C8FC642001F0E7
:102910004FFE2146002000F0C1FC21460C2000F0B3
:10292000BDFC642001F044FE0E4C0820214600F05E
:10293000B5FC2146042000F0B1FC642001F038FE13
:102940002146002000F0AAFC21460C2000F0A6FC45
:10295000BDE81040642001F02BBE000000003442AE
:10296000000007430000B44210B5044A00210448A7
:1029700001F04EF80349086010BD0000C05F000878
:102980005533000800000020F0B585B0002000900D
:102990000190029003902F48816941F010018161FC
:1029A000816901F010010491816941F02001816188
:1029B000816901F020010491816941F00401816184
:1029C000816901F004010491816941F0080181618C
:1029D0008069214F00F008000490012242F20101B9
:1029E0003846FEF7D4F9102000901C480225CDE9A6
:1029F000010569461A48FEF7CDF801240326CDE902
:102A000002460094694638460194FEF7C3F8600315
:102A10008DE8710069463846FEF7BCF8A0030090C7
:102A20001048CDE9010569463846FEF7B3F80022A3
:102A300005210A20FEF7A0FD0A20FEF78FFD0022E7
:102A400005212820FEF798FD2820FEF787FD05B018
:102A5000F0BD000000100240000C01400000111009
:102A600000080140000031100D4810B50B4901600D
:102A70000C49416000214FF480428160C0E903129B
:102A800041618161C1610162FEF78CF9002803D0C8
:102A9000BDE81040FDF795BE10BD00000054004099
:102AA000F8000020A086010010B58EB00024079425
:102AB000089409940A940B941C2168460C94FDF721
:102AC0001CFC2A484FF0804101604721C0E90114F5
:102AD00044F61F61C0E9031480218161FFF740F8CB
:102AE00008B1FDF76EFE4FF48050079007A91F480C
:102AF000FFF7AEF808B1FDF764FE1C48FFF73BFA9C
:102B000008B1FDF75EFE0B940BA918480C94FEF774
:102B1000F3FF08B1FDF755FE6020CDE900040294F3
:102B20000022694611480494FFF7BFF908B1FDF788
:102B300048FE042269460D48FFF7B7F908B1FDF7D2
:102B400040FE082269460948FFF7AFF908B1FDF7D2
:102B500038FE0C2269460548FFF7A7F908B1FDF7D2
:102B600030FE0248FFF77CF90EB010BD4C0100208A
:102B700010B586B000241848009401940294039480
:102B800004941449059401604FF4E151C0E9011423
:102B90004FF6FF71C0E9031480218161FEF7E0FF69
:102BA00008B1FDF70EFE4FF48050009069460A48C8
:102BB000FFF74EF808B1FDF704FE049404A9064897
:102BC0000594FEF799FF002801D0FDF7FAFD06B045
:102BD00010BD000000040040940100200C4810B516
:102BE0000A4901604FF4E1314160002181600C220B
:102BF000C160C0E904128161C161FFF77DFB00285B
:102C000003D0BDE81040FDF7DCBD10BD0038014029
:102C1000DC01002010B501F0F3FBFDF703FFFDF729
:102C2000BDFC00F087F8FDF7B1FD00F007FBFDF7F4
:102C300041FD002001F0E2FCBDE8104001F000BCC5
:102C40001CB505490120CDE900010203002303A1C1
:102C5000054802F015FA1CBDDC0000206D61696EAC
:102C60005F7461736B000000152C0008FEE7000024
:102C700000F0FEFA2B4C0020A070A07809284ED25C
:102C8000DFE800F04D0508423F0B1D333600FDF72D
:102C90009BFD3BE0FDF798FC38E0234D00202946E2
:102CA00000F0FCFA2946082000F0F8FA642001F050
:102CB0007FFC1E4D0FE000BF01F07AFC26E01C4DAA
:102CC0000020294600F0EAFA2946082000F0E6FA3A
:102CD000642001F06DFC2946042000F0DFFA29464B
:102CE0000C2000F0DBFA6420E6E700F005FE0DE0C2
:102CF0004FF0E0208069E17809B100F0010001287F
:102D000002D000F0FDF901E0FFF7F6FDE068401E9B
:102D1000E060E0680028B0D100F002FBADE73220AF
:102D2000CAE70000AC0000200000A04100002043E2
:102D30000000B4421CB505490120CDE900010203A1
:102D4000002303A1054802F09BF91CBDBC00002034
:102D50006D6F76656D656E7400000000712C000863
:102D6000FEE7000010B50021074C0A46002004EBE6
:102D7000C1131A54401CC0B28028FAD3491CC9B2EE
:102D80000829F3D310BD0000401B0020F0B50B4410
:102D900024E0044685181DE07F2C19D8002917DB94
:102DA0003F2915DCCE1701EB56764FEAE60C0D4FA6
:102DB00026F0070607EBCC172744A1EB060E97F881
:102DC00000C0012606FA0EF62CEA060C87F800C0B1
:102DD000641C24B2A542DFDC491C09B28B42D8DC5A
:102DE000F0BD0000401B002008B53C2300901A46AF
:102DF0000221402000F062F8BDE8084000F0BCB8B5
:102E000010B5AE2000F0CCF8D52000F0C9F8802035
:102E100000F0C6F8A82000F0C3F83F2000F0C0F88A
:102E2000D32000F0BDF8002000F0BAF8402000F0F8
:102E3000B7F8A12000F0B4F8C82000F0B1F8DA200B
:102E400000F0AEF8122000F0ABF8812000F0A8F8F6
:102E5000CF2000F0A5F8D92000F0A2F8F12000F072
:102E60009FF8DB2000F09CF8302000F099F8A420B7
:102E700000F096F8A62000F093F88D2000F090F86E
:102E8000142000F08DF8AF2000F08AF8FFF76AFFF9
:102E9000BDE8104000F070B810B50C4640F0B0002E
:102EA00000F07EF8102040EA141000F079F804F0E9
:102EB0000F00BDE8104000F073B800002DE9F04F9E
:102EC0001F4616460D4682460024FFF75FFF7F1E11
:102ED000F81707EB50700121DFF898B001EBE0071D
:102EE00043E000203DE000BF0AEB00037F2B36D813
:102EF000E91705EB5171CA1021F00701691A002D7D
:102F000003DA521E083112B209B202EB0409B9F118
:102F1000070F0ED8099A04FB06F802440BEBC91EF2
:102F200018F802201EF803C08A404CEA020C0EF882
:102F300003C009F10102072A11D80BEBC91202EBF9
:102F40000308099A04FB06FC024498F880301CF838
:102F50000220C1F10801CA40134388F88030401CA8
:102F6000C0B2B042C0D3641CE4B2A742B9DCBDE831
:102F7000F08F0000401B002070B5084D0024002198
:102F80002046FFF789FF05EBC410802100F01AF8F6
:102F9000641CE4B2082CF2D370BD0000401B00207A
:102FA00001B584B001214FF47A7204A88DE80700BE
:102FB0000B46002272210248FEF77CF905B000BDE5
:102FC000F80000200EB54FF47A728DE80700012357
:102FD000002272210148FEF76DF90EBDF8000020B5
:102FE0002DE9F04385B000208DF80C008DF810001D
:102FF00042F21076012304AAE6213D480096FDF72F
:1030000095FF0520FDF79EFD0024012703A8CDE9CB
:10301000000701230022E72102963548FEF71CF83D
:1030200018B99DF80C00202807D0641CE4B2052CC8
:10303000ECD3012005B0BDE8F0832F4DDFF8B4904C
:10304000002405F1010800BF19F8142009EB440021
:103050002A7040786870CDF80080CDE901760123B0
:10306000E6212348FEF726F90028E2D1641CE4B2E9
:10307000322CE9D320484446001D012302782A70EF
:1030800040786870CDE90087E62119480296FEF77E
:1030900011F90028CDD118480123801DE6210278BE
:1030A0002A7040786870CDE9004711480296FEF713
:1030B00001F90028BDD105201049CDE900100123F8
:1030C00093220296E6210A48FEF7F4F80028B0D1D0
:1030D00009480123801CE62102782A704078687034
:1030E000CDE9004702480296FEF7E4F8A2E70000A7
:1030F000F80000200E600008E4000020F00000202E
:1031000010B51849002000F0C9F8174C0C202146D2
:1031100000F0C4F8642001F04BFA2146082000F0CA
:10312000BDF82146042000F0B9F8642001F040FA0F
:103130000E4C0020214600F0B1F821460C2000F092
:10314000ADF8642001F034FA2146082000F0A6F81A
:103150002146042000F0A2F8BDE81040642001F0F0
:1031600027BA000000003442000007430000B442C8
:10317000014601220148FFF731B90000DC010020BF
:1031800008B5002000900D486946406801F097FDA1
:1031900018B10098012803D00AE0FDF712FB08BD22
:1031A00007494FF080500860BFF34F8FBFF36F8F18
:1031B000012202490348FFF711F908BDC0000020B1
:1031C00004ED00E0DC01002000F01EF80D4C4FF093
:1031D000FF352946606801F05DFE012802D0FDF749
:1031E000F0FAF6E72078C10604D5FDF793FB00F06E
:1031F00097F8EEE78006ECD5FDF774FB00F07EF85B
:10320000E7E70000C000002010B50B48FFF7B0FF53
:1032100003220021012001F0ABFB0749486028B1DF
:103220004FF0FF3101F036FE012803D0BDE8104019
:10323000FDF7C7BA10BD0000C00000201CB506494C
:103240000320CDE9000100234FF4805203A1074879
:1032500001F016FF1CBD0000C800002073657269F4
:10326000616C20646574656374000000C9310008F6
:1032700010B500210848FEF7ADFE04210648FEF710
:10328000A9FE08210448FEF7A5FEBDE810400C2168
:103290000148FEF79FBE00004C0100200A4610B511
:1032A000124904468A4201DD0A4603E012F1FF4F4B
:1032B00000D30022104602F05FFC0D4902F03EFDF3
:1032C0000C4902F0F7FB02F019FD81B20A480068D0
:1032D0002CB1042C05D0082C05D0016410BD41632D
:1032E00010BD816310BDC16310BD000000003443F8
:1032F0000000FA440000FA434C01002010B5074CCE
:10330000207000231A461946A06801F0C9FB002866
:1033100003D1BDE81040FDF754BA10BD9400002061
:1033200030B5642201230A494FF0FF3409280BD23B
:10333000DFE800F005070707070909050700CC606B
:1033400002E0CA6000E0CB608870CB7030BD000046
:10335000AC000020012000F020FBFBE710B54FF08F
:10336000E020006901F0E4FE012803D0BDE8104030
:1033700001F0E8BA10BD30B58FB028216846FCF7DF
:10338000BCFF14210AA8FCF7B8FF01210804CDE90D
:1033900000100024029402250491CDE907504FF457
:1033A000E01009906846FEF715FA00B172B60F20DA
:1033B000CDE90A054FF48060CDE90C4002210AA84E
:1033C0000E94FEF70BF9002800D072B60FB030BD96
:1033D000704700000148FEF7AABC0000240200204C
:1033E000F0B50268194B1A4C1A4D4FF080479842BD
:1033F00005D0B84203D0A04201D0A84203D122F0A8
:1034000070064A683243984205D0B84203D0A042C1
:1034100001D0A84203D122F44074CA6822434C6907
:1034200022F08002224302608A68C2620A688262D5
:10343000984201D109690163012141610169C9070C
:1034400003D0016921F001010161F0BD002C0140B0
:10345000000400400008004010B501F01F030121E6
:10346000046A99408C430462016A9A4011430162E4
:1034700010BD10B5846842EA032224F47F440A4355
:103480002243826010BD826822F070020A4342F03B
:10349000070181607047000030B5036A026A22F0BC
:1034A000010202624268846924F073050C682C43AF
:1034B00023F002058B682B430A4DA8420BD123F061
:1034C0000805CB6822F440722B434D6923F00403B6
:1034D00015438A692A4342608461496841630362F3
:1034E00030BD0000002C014030B5026A036A23F0B1
:1034F00010030362436884690D6824F4E64444EAD7
:1035000005248D6822F0200242EA05120B4DA842E4
:103510000ED1CD6822F0800242EA05124D6923F4F3
:10352000406343EA85038D6922F0400243EA850344
:103530004360846149688163026230BD002C0140B0
:1035400030B5036A026A22F4807202624268C4697A
:1035500023F4007324F073050C682C438D6843EA50
:1035600005230C4DA8420ED1CD6823F4006343EA35
:1035700005234D6922F4405242EA05128D6923F475
:10358000806342EA05124260C4614968C163036214
:1035900030BD0000002C014030B5046A026A22F4FC
:1035A000805202624268C3690D6823F4E64343EA2D
:1035B00005238D6824F4005444EA0534064DA842DE
:1035C00004D14D6922F4804242EA85124260C3610F
:1035D00049680164046230BD002C014010B5036AE3
:1035E000046A24F001040462846924F0F00444EACB
:1035F000021423F00A020A438461026210BD10B56E
:10360000036A046A24F010040462846923F0A003AE
:1036100024F4704444EA023243EA011182610162F7
:1036200010BD10B5406A0021C185C184FEF72CFD94
:1036300010BD01680C3151E8002F22F4907241E86E
:103640000023002BF5D10168143151E8002F22F03E
:10365000010241E80023002BF5D1016B012909D1BA
:1036600001680C3151E8002F22F0100241E80023DC
:10367000002BF5D1202180F8421000210163704712
:1036800008B590F84210222901D0022008BD8268B6
:103690004FF480539A4201D1016921B1816A9A4263
:1036A0001BD04AB10AE00268816A5268C2F308027C
:1036B0000A80816A891C08E0026972B10268526856
:1036C00002F07F020A70816A491C8162C18D491E25
:1036D0000904090CC18503D01BE002685268F1E7B8
:1036E0000168CA6822F02002CA600168CA6822F430
:1036F0008072CA6001684A6922F001024A61202191
:1037000080F8421000214163026B012A03D0FEF7CA
:1037100073FE002008BD016301680C3151E8002FE1
:1037200022F0100241E80023002BF5D101680A685D
:10373000D20602D50A6849680091818DFEF7A3FC84
:10374000E7E7000070B5044600680169E26821F40B
:103750004051114301612169A06808436169084330
:103760002168CA6841F20C639A430243CA60206828
:103770004169A26921F44071114341611E492068E9
:10378000884202D1FDF7F0FF01E0FDF7DDFF00EB1D
:10379000C00101EB0012606864218000B2FBF0F30D
:1037A000B3FBF1F36FF018067343B2FBF0F5B2FB15
:1037B000F0F605EB8305322303EB0515B5FBF1F5B8
:1037C000B6FBF1F605F0F00505EB0615B2FBF0F6D9
:1037D000B2FBF0F0B0FBF1F06FF01802504306EBD3
:1037E000800003EB0010B0FBF1F0216800F00F0047
:1037F0002844886070BD00000038014081628285E5
:10380000C28500214164222180F84210016921B162
:103810000168CA6842F48072CA6001684A6942F06D
:1038200001024A610068C16841F02001C1600020C6
:10383000704700000148FEF729BC0000DC010020B1
:1038400002490022488808804A807047EC00002026
:1038500010B50448FEF7D0F90348016841F00101B2
:10386000016010BD940100200004004070B550209C
:1038700080F31188BFF34F8FBFF36F8F01220B4D81
:10388000540321462846FDF782FA012000F090FEFD
:10389000002221462846FDF77AFA002080F311889D
:1038A000BDE870403B2000F083BE0000000C0140EA
:1038B00004490020086003482438016841F00101F0
:1038C000016070472404004008480068AA2148436A
:1038D0004FF47A71B0FBF1F0054948800348243871
:1038E00001684FF6FE7211400160704724040040E9
:1038F000EC000020FEE7000010B5134CA0886428FF
:1039000001D0A06805E04FF0E020806900F00700DA
:10391000A060032802D2FCF757FF09E0C11E03296B
:1039200002D2FCF751FE03E006280AD0FFF7E8FBBD
:10393000A088401E0004000CA08001D16420A0805B
:1039400010BDFEF7D9FFF3E7AC0000200907090E10
:10395000002804DB00F1E02080F80014704700F03C
:103960000F0000F1E02080F8141D7047FDF77AFD8C
:10397000FFF701FDFFF708F8FFF776F8FFF794F877
:10398000FFF72CF9FFF7F4F8FFF75AF900F012F8F7
:10399000FEF7EAFF00F020F8FEE710B5EFF305812F
:1039A00011B16FF0050403E0002408B100F000FE3F
:1039B000204610BDEFF3058010B16FF00500704791
:1039C0000448016811B14FF0FF30704701210160D8
:1039D000002070476400002010B5EFF3058010B19F
:1039E0006FF0050010BD08480168012902D04FF0B2
:1039F000FF3010BD054A002182F8141D022101602C
:103A000000F0CEFE002010BD640000200BE000E0BE
:103A10002DE9FF414FEA01034FF00005EFF3058167
:103A2000039549BB40B38027182100244AB3166888
:103A300006B1344696691EB13146761E382E02D242
:103A40001679F60703D0002004B0BDE8F08156696E
:103A500006B1B708D2F808C0BCF1000F0DD0D56888
:103A60005C2D18D312693AB136B18DE806103A468A
:103A7000214601F032FB03900DE0D6685EB9126971
:103A80004AB903AACDE90012BAB2214601F0F8FA08
:103A9000012800D003950398D6E700002DE9F041F6
:103AA000134C0F460546E6682068001D00F04CFCEC
:103AB000681C07D137B12168BDE8F0410D48091DE8
:103AC00000F092BC20683544B5424560216805D2BB
:103AD000A06BBDE8F041091D00F06EBC606B091DD4
:103AE00000F06AFCA06A854200D2A562BDE8F081C0
:103AF000140000205C0700202DE9F041054600F08D
:103B00007FFC2D4CA068401CA06020682B4F10B19A
:103B1000606930B32BE02560A068012827D100261A
:103B200006EB860007EB800000F038FC761C382E90
:103B3000F6D3234800F032FC2148143000F02EFC6C
:103B40001F48283000F02AFC1D483C3000F026FCBD
:103B50001B48503000F022FC194860631430A06309
:103B600005E02068E96AC06A884200D82560606A7A
:103B7000401C60626864E86A2169884200D920615B
:103B800000EB800007EB8000291D00F02DFC00F009
:103B900057FC606900280CD02068E96AC06A884236
:103BA00007D208494FF080500860BFF34F8FBFF332
:103BB0006F8FBDE8F081000014000020AC020020EF
:103BC0000C07002004ED00E038B500F019FC104CA3
:103BD0002068C8B90F4800F0E1FB0E48143000F02F
:103BE000DDFB0C48E060143020610A4B0020F03B04
:103BF000009003F1500210210A2000F0DAFE20604C
:103C000010B105A100F09EFCBDE8384000F018BCE2
:103C10005000002060080020546D72510000000028
:103C200030B4026C0B46002A0BD0C1681144C1604D
:103C30008468A14201D30168C16030BC1846FCF71A
:103C40000FBB30BC70472DE9F041856B1746044629
:103C50000026026C82B1C7B1E068FCF701FBE168A5
:103C6000206C091AE1602268914202D2A168081A08
:103C7000E060022F16D017E02068A8B9A06801F014
:103C8000CFFA06460020A0600EE06068FCF7E8FA74
:103C9000216C606808446060A168884204D3206891
:103CA000606001E005B16D1E6D1CA5633046BDE886
:103CB000F08110B5044690F8590058B101280CD095
:103CC00002280FD0502080F31188BFF34F8FBFF32D
:103CD0006F8FFEE7206B00F0C7FB2046BDE8104069
:103CE00000F0C2BB10BD000010484FF44061420715
:103CF00006D0C01D0D4920F00700411AC1F54061F2
:103D00000B4A00230144C2E900030839183A21F0A4
:103D1000070111604B600B600B1AC0E90013936040
:103D20004FF000405360506170470000400F00208A
:103D300080000020144E154CA6F29C474FF080588E
:103D4000DFF84C9012E000BF00F05AFBF068C56845
:103D5000281D00F0F9FAA068401EA0606068401EAF
:103D6000606000F06DFB2846FFF7A3FF6068002845
:103D7000EAD138680128F9D9C9F80080BFF34F8F1C
:103D8000BFF36F8FF2E70000480700201400002007
:103D900004ED00E070B51D46049C51B1C4F800204C
:103DA000C4E90F010121204600F036FE84F84C5092
:103DB00070BD2460F4E700002DE9F05F8846DDE97E
:103DC0000B941546834691009A460A9EA522206BC5
:103DD000FCF78BFA6FF00301206B01EB85010844BF
:103DE00020F00707780707D0502080F31188BFF331
:103DF0004F8FBFF36F8FFEE70025B8F1000F0FD094
:103E00005FF00000221818F8001082F8341018F83B
:103E1000001011B1401C1028F4D384F8435001E085
:103E200084F83450382E00D33726E662C4E913658F
:103E3000201D00F0BEFA04F1180000F0BAFA246167
:103E4000C6F138006462A061656584F85850524636
:103E50005946384600F066FA2060B9F1000F01D0EB
:103E6000C9F80040BDE8F09F30B5114900E01146A7
:103E70000A688242FBD34B685C18844203D14068D5
:103E800018444860084643681C18944209D1084CFD
:103E9000183C2468A24209D052681A4442600A6859
:103EA00012680260814200D0086030BD0460F9E70A
:103EB0008000002070B5002441600B4D00619142EC
:103EC00006D8D11A8269914206D2011D286907E0FD
:103ED0009A4203D2994201D3012403E0011DE8680C
:103EE00000F06AFA204670BD5000002010B504466C
:103EF00000F086FAA06B28B15FF0000400F0A0FA91
:103F0000204610BD0124F9E730B589B03C4D6EE084
:103F10000498002806DADDE90601059A904704981E
:103F2000002864DB069C606910B1201D00F00CFACB
:103F300003A800F0D7F8024604980A2857D2DFE811
:103F400000F00505052D334A05052D3394F82800AA
:103F500040F0010084F828000599A069059B014400
:103F60002046FFF7A7FF68B3216A2046884794F8E8
:103F7000280040073BD5002000900598A169002348
:103F800042181946204601F091FAD8B9502080F322
:103F90001188BFF34F8FBFF36F8FFEE714F8280F20
:103FA00020F00100207022E094F8280040F0010089
:103FB00084F828000598A06128B18118134620468E
:103FC000FFF778FF13E0502080F31188BFF34F8F85
:103FD000BFF36F8FFEE794F82800810703D42046D3
:103FE00000F042FA03E020F0010084F828000022EB
:103FF00004A9286800F0B2FE002889D109B030BDBC
:10400000500000202DE9FC410F46054600F00CFC55
:1040100001A800F067F80446019818B101F0B4F95E
:10402000BDE8FC81254EAFB130690068D0B30027F0
:10403000291B3A46306800F099FA01F0A5F90028EA
:10404000EED11F494FF080500860BFF34F8FBFF390
:104050006F8FE5E7A542EBD801F096F9F0682746A7
:10406000C068C468201D00F06FF994F8280041076B
:1040700019D5A0692B4641193A462046FFF71AFF89
:10408000A8B100200346014600902A46204601F0D0
:104090000DFA60B9502080F31188BFF34F8FBFF342
:1040A0006F8FFEE707E020F0010084F82800216A06
:1040B00020468847B4E70127BAE7000050000020F7
:1040C00004ED00E00648416B096829B1416BC968FD
:1040D000C9684968816270474FF0FF31FAE7000014
:1040E0001400002070B5054601F030F8064E044675
:1040F000B068844203D200F009F8012000E00020FB
:1041000028602046B46070BD50000020F8B5194DFD
:1041100020E0C068C4680668201D00F015F9216A17
:104120002046884794F82800400713D5A0693044FA
:10413000B04206D924616060211DE86800F03CF9B6
:1041400008E000200346014600903246204601F078
:10415000ADF938B1E86801680029DAD12969C5E903
:104160000310F8BD502080F31188BFF34F8FBFF3C9
:104170006F8FFEE75000002008484068401C4FF059
:10418000500080F3118804D0BFF34F8FBFF36F8FBF
:10419000FEE7BFF34F8FBFF36F8FFEE7880000206D
:1041A000074CE068016841B1C0680021D0F8000008
:1041B000FFF728FFFFF7A8FEF3E701210020F7E74C
:1041C000500000202DE9F041044600F019F994F95F
:1041D000455004F1240609E0606A48B1304601F018
:1041E0009BF808B100F05AFA6D1E6DB2002DF3DC99
:1041F0004FF0FF3684F8456000F022F900F000F936
:1042000094F9445004F1100709E0206948B1384698
:1042100001F082F808B100F041FA6D1E6DB2002D78
:10422000F3DC84F84460BDE8F04100F009B9000017
:104230002DE9F0410546002700F0F6FA324E3068CD
:1042400008B9FFF751FD706905424ED1C5B3083575
:1042500068070ED005F00700C0F1080005446807A4
:1042600007D0502080F31188BFF34F8FBFF36F8FBB
:10427000FEE72DB37068854237D8234818300146D1
:104280000C6801E020460C466168A94202D2216810
:104290000029F7D131688C4227D007682168016076
:1042A00060680837411B10290FD96019420708D0F0
:1042B000502080F31188BFF34F8FBFF36F8FFEE75D
:1042C00013E041606560FFF7CFFD61687068401AD8
:1042D0007060B268904200D2B06070690143002003
:1042E000C4E90001F068401CF06001F04DF8780767
:1042F00007D0502080F31188BFF34F8FBFF36F8F2B
:10430000FEE73846BDE8F0816800002004490868EF
:1043100018B10868026D521C0265086870470000F9
:104320001400002010B5031F4FF080741C601B1F89
:1043300021F001011960191F024B0B60143940383C
:104340000A6010BD79410008D0E9013201699A6024
:10435000D0E901235A604A68824201D182684A60EA
:10436000002202610868401E08600868704700006B
:10437000034B036003F15C0008608020106070470D
:1043800088080020044B036003F15C0008604FF4D0
:104390008070106070470000E40A002000F10801FE
:1043A0004FF0FF32C0E90112C160016100210160DC
:1043B000704700210161704730B50B685A1C02D06C
:1043C00000F1080202E0026904E022465468256810
:1043D0009D42FAD953684B6099608A6051600861C8
:1043E0000168491C016030BD42684A6093688B6077
:1043F00093685960916008610168491C01607047C9
:10440000502080F31188BFF34F8FBFF36F8F0A499D
:104410004868401C486001280CD10848006810F02A
:10442000FF0F07D0502080F31188BFF34F8FBFF3E9
:104430006F8FFEE7704700008800002004ED00E069
:104440000849486828B1401E486001D180F31188AE
:104450007047502080F31188BFF34F8FBFF36F8FE9
:10446000FEE700008800002070B500282AD0164D15
:10447000A0F1080460686969084207D1502080F300
:104480001188BFF34F8FBFF36F8FFEE722683AB1F9
:10449000502080F31188BFF34F8FBFF36F8FFEE77B
:1044A0008843606000F0C0F960686968084468602B
:1044B0002046FFF7D9FC2869401C2861BDE8704000
:1044C00000F062BF70BD0000680000204FF0E020E7
:1044D00000210161816105494FF47A720968B1FBDD
:1044E000F2F1491E4161072101617047100000206F
:1044F00010B5FBF791FE114910280ED300F1E02012
:1045000090F8F0030A78904207D2502080F3118887
:10451000BFF34F8FBFF36F8FFEE7094800688968CC
:1045200000F4E060884207D9502080F31188BFF37F
:104530004F8FBFF36F8FFEE710BD00008800002093
:104540000CED00E010B5084B002200BF53F83240DC
:104550001CB1521C082AF9D310BD43F8321003EBEA
:10456000C201486010BD00006C02002070B5154605
:104570000E460446FFF744FF94F944100020491CFE
:1045800001D184F8440094F94510491C01D184F804
:104590004500FFF755FFA06B28B92A46314604F1C4
:1045A000240000F099F82046BDE87040FFF70ABEED
:1045B00010B5020014D00F48006B38B1502080F3C2
:1045C0001188BFF34F8FBFF36F8FFEE700F02CF918
:1045D00000211046FFF762FA00F0D6FE002807D14E
:1045E00005494FF080500860BFF34F8FBFF36F8FC6
:1045F00010BD00001400002004ED00E070B5054679
:10460000FFF7FEFE1E4C05B92568281DFFF79CFE2E
:10461000A86A18B105F11800FFF796FE606A401C01
:1046200060622068854207D1291D1648FFF7DCFE2D
:104630006068401C606007E0A068401EA0602846DB
:10464000FFF737FBFFF73EFDFFF7FAFE6069002832
:1046500014D02068854211D1206B38B1502080F3EE
:104660001188BFF34F8FBFF36F8FFEE706494FF0FE
:1046700080500860BFF34F8FBFF36F8F70BD000095
:10468000140000204807002004ED00E002490A6AF7
:104690000260C96841607047140000200149012090
:1046A000C86170471400002010B50C4650B109498C
:1046B00009681831FFF780FE2046BDE8104001214F
:1046C000FFF7ECB9502080F31188BFF34F8FBFF391
:1046D0006F8FFEE71400002070B514460D4668B1D8
:1046E0000A4909681831FFF77FFE0CB14FF0FF351A
:1046F00021462846BDE87040FFF7D0B9502080F32E
:104700001188BFF34F8FBFF36F8FFEE714000020B7
:1047100070B504003ED0226DA2B1E06C884200D397
:104720000146E06A884235D0012A33D11A4D2A6801
:1047300094420FD1502080F31188BFF34F8FBFF305
:104740006F8FFEE7502080F31188BFF34F8FBFF3C8
:104750006F8FFEE7E162A269002A02DBC1F1380136
:10476000A1610E4E00EB8000616906EB8000814282
:1047700010D1201DFFF7E8FDE06A2969884200D9C1
:10478000286100EB800006EB8000211DBDE8704031
:10479000FFF72ABE70BD000014000020AC0200200C
:1047A00030B587B00024039405AA04A903A8049493
:1047B000FFF7DEFDDDE903010094CDE901100023E0
:1047C00015A11748059A00F088FC164D0028E862EC
:1047D0001FD000F03BFE012809D0401C19D1502009
:1047E00080F31188BFF34F8FBFF36F8FFEE7502028
:1047F00080F31188BFF34F8FBFF36F8F4FF0FF30FF
:10480000A86201206861EC6007B0BDE8304000F0AC
:1048100045B807B030BD000049444C4500000000D9
:10482000353D0008140000200248016B491C01635B
:104830007047000014000020164810B5016B11B13C
:104840000121C16110BD0021C1610169124A01E06D
:10485000B9B1491E01EB810352F82330002BF7D088
:1048600001EB810302EB830202F1080453685B68E9
:104870005360A34201D15B685360DA680260016152
:1048800010BD502080F31188BFF34F8FBFF36F8F9F
:10489000FEE7000014000020AC0200201CB52649F1
:1048A00008780190FF20087008788DF800009DF8C6
:1048B00000009DF8002000F0F000904207D050204A
:1048C00080F31188BFF34F8FBFF36F8FFEE79DF822
:1048D00000001A4C00F0500020700720A06005E096
:1048E0009DF8002052008DF80020401E9DF8002009
:1048F0001206F5D4A060032807D0502080F3118859
:10490000BFF34F8FBFF36F8FFEE74FF44070A0608F
:10491000019808700A48016841F47001016001685B
:1049200041F070410160FFF7D1FD00206060FBF7AE
:104930003DFC00201CBD000000E400E088000020D9
:1049400020ED00E010B5502080F31188BFF34F8FA9
:10495000BFF36F8F00F000FC18B104494FF0805096
:104960000860002080F3118810BD000004ED00E015
:10497000F8B517460E46050013D005FB06F050307B
:10498000FFF756FC04000AD0002084F8460004F12A
:1049900050023B46314628460094FFF7FBF920467B
:1049A000F8BD502080F31188BFF34F8FBFF36F8F96
:1049B000FEE738B5049D18B153B1CAB181B120E00A
:1049C000502080F31188BFF34F8FBFF36F8FFEE746
:1049D000502080F31188BFF34F8FBFF36F8FFEE736
:1049E000502080F31188BFF34F8FBFF36F8FFEE726
:1049F00039B1502080F31188BFF34F8FBFF36F8F11
:104A0000FEE750241C46012384F846302B460094D0
:104A1000FFF7C0F9204638BD70B50D46040025D01B
:104A2000FFF7EEFCD4E90F20216802FB0011A16022
:104A30000021A163216861600A46D4E90F01401E8C
:104A400000FB0121E16021464FF0FF3001F8440FE7
:104A5000487004F110008DB1FFF7A0FC04F12400B0
:104A6000FFF79CFCFFF7ECFC012070BD502080F3A9
:104A70001188BFF34F8FBFF36F8FFEE721690029C5
:104A8000F0D000F049FC0028ECD004494FF08050F1
:104A90000860BFF34F8FBFF36F8FE3E704ED00E0D3
:104AA0002DE9FF4782B01D468A464FF000080400FA
:104AB00003D0BAF1000F08D011E0502080F3118824
:104AC000BFF34F8FBFF36F8FFEE7206C38B15020DC
:104AD00080F31188BFF34F8FBFF36F8FFEE7022D76
:104AE0000AD1E06B012807D0502080F31188BFF372
:104AF0004F8FBFF36F8FFEE700F01AFB3F4F4FF071
:104B000000094FF0805648B9049838B1502080F31E
:104B10001188BFF34F8FBFF36F8FFEE7FFF770FC75
:104B2000A06BE16B884207D3022D05D00498D0B169
:104B3000B8F1000F1AD01EE02A4651462046FFF772
:104B400082F8616A19B104F1240000F0E5FB20B19C
:104B50003E60BFF34F8FBFF36F8FFFF771FC0120F3
:104B600006B0BDE8F087FFF76BFC22E06846FFF770
:104B70008DFD4FF00108FFF763FCFFF755FEFFF7CF
:104B80003FFC94F94400401C01D184F8449094F90E
:104B90004500401C01D184F84590FFF751FC04A961
:104BA000684600F033FA30B12046FFF70BFB00F007
:104BB000EBFB0020D4E7FFF723FCA06BE16B8842FE
:104BC00013D1FFF73DFC04F110000499FFF76CFDD1
:104BD0002046FFF7F7FA00F0D7FB00289ED13E6091
:104BE000BFF34F8FBFF36F8F98E7FFF729FC204685
:104BF000FFF7E8FA00F0C8FB90E7000004ED00E0E2
:104C00002DE9F0471F4690468946040003D0B9F1CC
:104C1000000F08D011E0502080F31188BFF34F8FB0
:104C2000BFF36F8FFEE7206C38B1502080F31188FE
:104C3000BFF34F8FBFF36F8FFEE7022F0AD1E06BF8
:104C4000012807D0502080F31188BFF34F8FBFF3A6
:104C50006F8FFEE7FFF74CFC5020EFF3118680F3D7
:104C60001188BFF34F8FBFF36F8FA06BE16B88424A
:104C700006D3022F04D0002086F31188BDE8F08708
:104C800094F94550A06B3A4649462046FEF7DBFFB3
:104C9000681C04D06D1C84F845500120ECE7606A64
:104CA0000028FAD004F1240000F036FB0028F4D0EC
:104CB000B8F1000FF1D00121C8F80010EDE770B590
:104CC0000E46040009D0206C78B1502080F3118882
:104CD000BFF34F8FBFF36F8FFEE7502080F3118833
:104CE000BFF34F8FBFF36F8FFEE7206848B9A0680E
:104CF00038B1502080F31188BFF34F8FBFF36F8F0F
:104D0000FEE7FFF7F5FB5020EFF3118580F31188E4
:104D1000BFF34F8FBFF36F8FA16BE06B884218D941
:104D200094F94500491CA163411C04D0401C84F83F
:104D3000450001200EE0606A0028FAD004F124004A
:104D400000F0EAFA0028F4D0002EF2D00120306002
:104D5000EFE7002085F3118870BD00002DE9F747CB
:104D6000002683B08A46040003D0BAF1000F08D0B1
:104D700011E0502080F31188BFF34F8FBFF36F8F86
:104D8000FEE7206C38B1502080F31188BFF34F8FBD
:104D9000BFF36F8FFEE700F0CBF9DFF8F4804FF040
:104DA00000094FF0805748B9059838B1502080F37A
:104DB0001188BFF34F8FBFF36F8FFEE7FFF720FB24
:104DC000A56BC5B151462046FEF72AFF6D1EA563AF
:104DD000206950B104F1100000F09EFA28B1C8F823
:104DE0000070BFF34F8FBFF36F8FFFF729FB0120D8
:104DF00006B0BDE8F087059808B11EB106E0FFF7E0
:104E00001FFB27E06846FFF741FC0126FFF718FB70
:104E1000FFF70AFDFFF7F4FA94F94400401C01D1B2
:104E200084F8449094F94500401C01D184F84590E1
:104E3000FFF706FB05A9684600F0E8F800282046C1
:104E40000AD0FFF7BFF900F09FFA2046FFF74EF8AF
:104E50000028B3D00020CBE7FFF748F890B104F169
:104E600024000599FFF720FC2046FFF7ABF900F07E
:104E70008BFA0028A2D1C8F80070BFF34F8FBFF3A0
:104E80006F8F9BE72046FFF79DF900F07DFA95E7CD
:104E900004ED00E02DE9F343002683B0040035461D
:104EA00009D0206C78B1502080F31188BFF34F8F68
:104EB000BFF36F8FFEE7502080F31188BFF34F8F51
:104EC000BFF36F8FFEE700F033F9DFF83C814FF05E
:104ED00000094FF0805748B9049838B1502080F34A
:104EE0001188BFF34F8FBFF36F8FFEE7FFF788FA8C
:104EF000A06BC8B1401EA063206810B9FFF706FA86
:104F0000A060206950B104F1100000F005FA28B14A
:104F1000C8F80070BFF34F8FBFF36F8FFFF790FAA1
:104F2000012005B0BDE8F083049808B166B10FE038
:104F30003DB1502080F31188BFF34F8FBFF36F8FC7
:104F4000FEE7FFF77DFA5DE06846FFF79FFB01266D
:104F5000FFF776FAFFF768FCFFF752FA94F944007E
:104F6000401C01D184F8449094F94500401C01D1C3
:104F700084F84590FFF764FA04A9684600F046F803
:104F80000028204612D0FFF71DF900F0FDF9204659
:104F9000FEF7ACFF0028A9D09DB3FFF731FA606A95
:104FA00050B3206B0068C0F1380126E0FEF79EFF89
:104FB000E0B1206838B9FFF723FAA06800F070F973
:104FC0000546FFF73DFA04F124000499FFF76CFB56
:104FD0002046FFF7F7F800F0D7F9002886D1C8F887
:104FE0000070BFF34F8FBFF36F8F7FE72046FFF74F
:104FF000E9F800F0C9F979E70021A068FFF788FB1C
:105000009FE7FFE700208CE704ED00E02DE9F04189
:105010000C46050011D0C4B1FFF7F2F9174BDA685E
:105020006E682068911B471C17D02F681B6A9F422F
:1050300019D0964217D8012410E0502080F311882F
:10504000BFF34F8FBFF36F8FFEE7502080F31188BF
:10505000BFF34F8FBFF36F8FFEE70024FFF7F0F928
:105060002046BDE8F081884205D9401A20602846D4
:10507000FFF70CFBF1E700202060DCE714000020C4
:105080002DE9FF5F8346DDE90E87994616468A467D
:105090009000FFF7CDF805001CD05C20FFF7C8F8A2
:1050A000040014D00020256384F85900CDE90240A3
:1050B000CDE900874B46324651465846FEF77CFE06
:1050C0002046FEF719FD012004B0BDE8F09F2846F8
:1050D000FFF7CAF94FF0FF30F6E7F0B585B0DDE92C
:1050E0000B640A9DA6B1DCB15C27009726630226FB
:1050F00084F85960002604AFCDE90246CDE9005797
:10510000FEF75AFE2046FEF7F7FC049805B0F0BD06
:10511000502080F31188BFF34F8FBFF36F8FFEE7EE
:10512000502080F31188BFF34F8FBFF36F8FFEE7DE
:105130000548416919B1006B18B100207047012082
:105140007047022070470000140000200148C0682A
:1051500070470000140000202DE9F0412E4C00277C
:10516000206B28B1A069401CA0613846BDE8F081E1
:10517000E668761CE66013D1606B006838B1502099
:1051800080F31188BFF34F8FBFF36F8FFEE7606B23
:10519000A16B6163A063206A401C2062FEF792FF4E
:1051A000A06ADFF87880864209D3606B0068A0B1FE
:1051B000606BC068C5686868864211D2A0622068CA
:1051C000C06A00EB800158F82100012800D90127AE
:1051D000E0690028C9D00127C7E74FF0FF30EDE7AD
:1051E000281DFFF7B1F8A86A18B105F11800FFF7FC
:1051F000ABF8E86A2169884200D9206100EB8001A0
:1052000008EB8100291DFFF7EFF8E86A2168C96AF9
:105210008842CAD30127C8E714000020AC0200204E
:1052200070B504004FF0000133D01B4D2868844254
:1052300007D0502080F31188BFF34F8FBFF36F8FDB
:10524000FEE7206D38B1401E2065E36CE26A9A42A9
:105250001FD040B11DE0502080F31188BFF34F8F65
:10526000BFF36F8FFEE7201DFFF76EF8E06CE06282
:10527000C0F13800A061E06A2969884200D928613C
:10528000064900EB800001EB8000211DFFF7ACF820
:105290000121084670BD000014000020AC0200206F
:1052A00070B504004FF000002BD0194DE16A2A6858
:1052B000D26A914226D2A069002804DB2868C06A1D
:1052C000C0F13800A061134E01EB8101606906EB6B
:1052D0008101884211D1201DFFF736F82868C06A85
:1052E000E0622969884200D9286100EB800006EB62
:1052F0008000211DFFF778F802E02868C06AE062AC
:10530000012070BDE16C2A68D26A9142F8D370BD69
:1053100014000020AC02002070B5C068C46854B10D
:1053200004F118000646FFF70FF8144D286B50B132
:105330003146134815E0502080F31188BFF34F8F9A
:10534000BFF36F8FFEE7201DFEF7FEFFE06A2969BD
:10535000884200D928610B4900EB800001EB8000F6
:10536000211DFFF741F8E06A2968C96A884202D91D
:105370000120E86170BD002070BD00001400002015
:1053800034070020AC0200202DE9F0472C4D00240A
:105390002746286B38B1FFF733F8286B401E286387
:1053A000286B40B146E0502080F31188BFF34F8F47
:1053B000BFF36F8FFEE7A968224E0120D1B3A6F597
:1053C000916980463068E0B1F068C46804F1180063
:1053D000FEF7BAFF201DFEF7B7FFE06A2969884291
:1053E00000D9286100EB800109EB8100211DFEF747
:1053F000FBFFE06A2968C96A8842E3D3C5F81C80CC
:10540000E0E70CB1FEF75EFEAC694CB14FEA08066E
:10541000FFF7A2FE00B1EE61641EF9D10020A86181
:10542000E86938B10849012738070860BFF34F8F92
:10543000BFF36F8FFFF704F83846BDE8F087000030
:10544000140000203407002004ED00E010B586B001
:10545000FEF7BAFB114C2068B8B10020039004900D
:1054600005AA04A903A8FEF78DFFDDE903210220A8
:105470008DE8070000230AA10B48059AFFF72DFECF
:10548000606010B106B0012010BD502080F311887B
:10549000BFF34F8FBFF36F8FFEE700005000002077
:1054A000546D722053766300A14100082DE9FF413D
:1054B0001E46134602000A9D4FF0000016D0144C01
:1054C0002768002F0FD0CDE900130292062917DAC2
:1054D000FFF72EFE02284FF000030FD0002269468E
:1054E0002068FFF7DDFA04B0BDE8F081502080F3BA
:1054F0001188BFF34F8FBFF36F8FFEE72A46EEE7A9
:105500000023324669463846FFF77AFBEBE7000096
:105510005000002010B591EA030F48BF83F000430C
:1055200000F1E681841A71EB030C05D2121943EBEA
:105530000C03001B61EB0C01DFF824E14FEA11546E
:10554000A4EB135C1EEA430F18BF9EEA445F73D0BE
:1055500023EA0E03DCF1200E21EA045143F4801308
:1055600032D322FA0CFE10EB0E0023FA0CFE41EBB4
:105570000E01CCF1200E03FA0EFE10EB0E0051F1DD
:105580000001B1F5801FCCF1200E32D201EB0451A5
:1055900012FA0EF2BDE8104058BF7047401C38BFE9
:1055A0005FEA420218BF7047002814BF20F00100D4
:1055B00041F100014FEA410313F5001F38BF704766
:1055C000A1F1C04100F086B9012A43EB0302ACF11E
:1055D000200CDCF11F0E32BF4FF0000E23FA0CF34B
:1055E00010EB030041EB0451B4EB115FD0D0A1EB01
:1055F000045101F5801149085FEA300001EB0451C4
:105600000ED350F1000038BF12FA0EFE08D1BDE8EB
:105610001040C9E7401C38BF5FEA4202CAD1C3E765
:10562000BDE810404FEA410313F5001F38BF704733
:10563000A1F1C04100F04EB99EEA445F08D011EAE2
:105640005E0FBDE8104004BF01F00041002070472C
:10565000BDE8104070B500F0EFF800BF64FBBE3E3F
:105660000000E0FF4FEA1153A3F58063D3F11E035E
:10567000A8BFD3F1200C08DB4FF0004242EAC12260
:1056800052EA505232FA03F0704709420BD4102B01
:10569000C4BF0020704703F5787CBCF1FF3F05D004
:1056A0004FF0FF3070474FF00000704770B500F0CA
:1056B000C3F800BF4992248000207047F0E7B0FA99
:1056C00080F310FA03F10AD0C3F11D0303F58063E0
:1056D0004FEA41504FEA035202EBD12170474FF09D
:1056E00000007047DFF848C170B51CEA111E1EBFEC
:1056F0001CEA13159EEA0C0F95EA0C0F00F06F8060
:1057000081EA030423EA4C134EEAD47E21EA4C11C9
:1057100041F4801143F48013AE44A1FB024CA0FB82
:105720000365AEF17F7E361955EB0C05A1FB034CEA
:105730004CF10003A0FB021C16EB0C06654153F173
:105740000003094218BF46F0010613F4007F0BD195
:105750004FEA03314FEA0530340341EA155140EA7C
:1057600016506FF003020AE04FEAC3214FEAC5204A
:10577000F40241EA555140EA56506FF0020202EB42
:105780002E4201EB025585EACE710AD05FEA440C45
:1057900018BF24F0004450F1000041F1000120EA5C
:1057A000D47040F2FE7C624500D270BDA84214BFA6
:1057B0004FF080444FF04044002E08BF0024BEF15B
:1057C000806FA8BFA1F1C041BDE8704080F2828027
:1057D0004FF0000001F1C04101F0004170479EEA26
:1057E0000C0F0CEA131518BF95EA0C0F06D04FF0FA
:1057F000000081EA030E0EF0004170BD00F01CF8BD
:105800008900013E00F007B800F009B84FEA430CE8
:105810005FEA5C5C08D081EA030100F05BB84FEA04
:10582000410C5FEA5C5CF6D14FF000000149704723
:105830000000FF070000F87F0EF1020E2EF0030EAD
:105840005EF8046B364205D4012A43EB030515F5D7
:10585000001F12D8012841EB010C1CF5001F0CD8C9
:105860000ED14FEAD17C15F5001F0CEB4C0C0CF15E
:10587000020C08BF4CEBD37C04E04FF0080C01E0B5
:105880004FEAD37C0CEB4C0526FA05F606F007062A
:10589000B6F1040C06D20EEB860CBDE870404CF05D
:1058A000010C6047DFE80CF0090B02024FF00041E9
:1058B0004FF00000A1F5002170BD194610460128E7
:1058C00051EB010418BFD4F5001484BF002001F08F
:1058D000004170BD0808A0F500114FEA3101704782
:1058E00010B591EA030F48BF83F000433FF51AAEAD
:1058F000841A71EB030C07D212198CF0004C43EBA5
:105900000C03001B61EB0C01DFF8A4E14FEA11541A
:10591000A4EB135C1EEA430F18BF9EEA445F00F03D
:10592000B08023EA6E03524221EA0451C3EB6E03B6
:1059300038BF5B1EDCF1200E25D322FA0CFE10EBE3
:105940000E0043FA0CFE41EB0E01CCF1200E03FADF
:105950000EFE10EB0E0051F10001CCF1200E29D407
:1059600012FA0EF201EB0451BDE8104058BF704727
:10597000401C1CBFB2F1004F704700280CBF491CEF
:1059800020F00100704712EB020E43EB030218BF38
:105990004FF0010E4EEA4202ACF1200CDCF11E0E7B
:1059A00054D943FA0CFE10EB0E0051F1FF31CCF14B
:1059B0001E0ED5D50EF1010E12FA0EFE404141EB3E
:1059C000010101EB445C5FEA5C5C10D910EBDE7016
:1059D00001EB045138BFBEF1004FBDE8104018BFC5
:1059E000704700280CBF491C20F00100704730D2DE
:1059F0004FEAD42C11F5001124F400641BD0B1FA45
:105A000081F20B3AA41AA41ED2F12003914030FA7D
:105A100003F31943904001EBCC71002C01EB0451CE
:105A2000BDE81040A8BF704701F1C0414FF0000031
:105A300001F000417047B0FA80F310FA03F100D191
:105A400010BDE41A173C4805C90AE4E701EB04510C
:105A500010BD491001EB0451BDE810404FEA300081
:105A600002E04FF0000170474A0008BF0042F8D042
:105A7000B2F5001F28BF704701F000414FF0000051
:105A800070479EEA445F07D011EA5E0FBDE8104000
:105A900004BF002100207047BDE8104070B5FFF73B
:105AA000CBFE00BF40DFF63E83F00041104670475A
:105AB0000000E0FF90EA010F48BF81F0004100F1D3
:105AC0001082421A3CBF801A89184FEAD0524FF018
:105AD0007F4C1CEA410FA2EBD15318BF9CEA026F26
